:100000000C946C000C9494000C9494000C94940048
:100010000C9494000C9494000C9494000C94940010
:100020000C9494000C9494000C9494000C94940000
:100030000C9494000C9494000C9494000C949400F0
:100040000C9441110C9494000C94B1110C948B11EC
:100050000C9494000C9494000C9494000C949400D0
:100060000C9494000C94940005A84CCDB2D44EB9D5
:100070003836A9020C50B9918688083CA6AAAA2A4B
:10008000BE000000803F00000008000201000003E5
:100090000407000000000000000000000000250030
:1000A00028002B0000000000240027002A00040480
:1000B0000404040404040202020202020303030310
:1000C00003030102040810204080010204081020EC
:1000D000010204081020E31111241FBECFEFD8E065
:1000E000DEBFCDBF13E0A0E0B1E0E0E4F8E302C082
:1000F00005900D92A439B107D9F727E0A4E9B3E040
:1001000001C01D92AC3CB207E1F710E0CCE6D0E0B4
:1001100004C02197FE010E941917CB36D107C9F7F9
:100120000E9457130C941E1C0C94000090E0FC01DC
:10013000EE53FF4F249182559F4FFC0184918823F9
:1001400099F090E0880F991FFC01EC55FF4FA591A5
:10015000B491FC01E656FF4F859194918FB7F894C6
:10016000EC91E22BEC938FBF089590E0FC01EA57ED
:10017000FF4F2491FC01EE53FF4F3491FC01E255F7
:10018000FF4FE491EE23C9F0222339F0233001F12F
:10019000A8F4213019F1223029F1F0E0EE0FFF1F11
:1001A000E656FF4FA591B4918FB7F894EC91611189
:1001B00026C030953E233C938FBF08952730A9F089
:1001C0002830C9F0243049F7809180008F7D03C02A
:1001D000809180008F7780938000DFCF84B58F7708
:1001E00084BDDBCF84B58F7DFBCF8091B0008F774E
:1001F0008093B000D2CF8091B0008F7DF9CF3E2B9D
:10020000DACF61E08091BC070C94B5003FB7F89459
:100210008091CB039091CC03A091CD03B091CE03FC
:1002200026B5A89B05C02F3F19F00196A11DB11D51
:100230003FBFBA2FA92F982F8827BC01CD01620F8D
:10024000711D811D911D42E0660F771F881F991F48
:100250004A95D1F708958F929F92AF92BF92CF9215
:10026000DF92EF92FF920E9406014B015C018AE04F
:10027000C82ED12CE12CF12C0E94060168197909B5
:100280008A099B09683E734081059105A8F321E026
:10029000C21AD108E108F10888EE880E83E0981EA2
:1002A000A11CB11CC114D104E104F10429F7FF9091
:1002B000EF90DF90CF90BF90AF909F908F90089578
:1002C0002FB7F8946091C7037091C8038091C90358
:1002D0009091CA032FBF0895AF92BF92CF92DF9241
:1002E000EF92FF920F931F93CF93DF936C017B01EB
:1002F0008B01040F151FEB015E01AE18BF08C0177C
:10030000D10759F06991D601ED91FC910190F081EE
:10031000E02DC6010995892B79F7C501DF91CF91B1
:100320001F910F91FF90EF90DF90CF90BF90AF9013
:100330000895FC01538D448D252F30E0842F90E0EB
:10034000821B930B541710F0CF96089501970895D0
:10035000FC01918D828D981761F0A28DAE0FBF2F99
:10036000B11D5D968C91928D9F5F9F73928F90E0EF
:1003700008958FEF9FEF0895FC01918D828D98175E
:1003800031F0828DE80FF11D858D90E008958FEF9B
:100390009FEF0895FC01918D228D892F90E0805C64
:1003A0009F4F821B91098F739927089580EE93E0E8
:1003B0000E94CA0121E0892B09F420E0822F0895D0
:1003C00080E090E0892B29F00E94D60181110C94E5
:1003D00000000895FC01A48DA80FB92FB11DA35AE8
:1003E000BF4F2C91848D90E001968F739927848F55
:1003F000A689B7892C93A089B1898C918370806478
:100400008C93938D848D981306C00288F389E02D18
:1004100080818F7D80830895EF92FF920F931F93C9
:10042000CF93DF93EC0181E0888F9B8D8C8D9813A7
:100430001AC0E889F989808185FF15C09FB7F894B3
:10044000EE89FF896083E889F989808183708064FF
:1004500080839FBF81E090E0DF91CF911F910F914A
:10046000FF90EF900895F62E0B8D10E00F5F1F4F59
:100470000F731127E02E8C8D8E110CC00FB607FC68
:10048000FACFE889F989808185FFF5CFCE010E94F6
:10049000EA01F1CFEB8DEC0FFD2FF11DE35AFF4F79
:1004A000F0829FB7F8940B8FEA89FB898081806284
:1004B000CFCFCF93DF93EC01888D8823B9F0AA8941
:1004C000BB89E889F9898C9185FD03C0808186FD0F
:1004D0000DC00FB607FCF7CF8C9185FFF2CF80815E
:1004E00085FFEDCFCE010E94EA01E9CFDF91CF91E8
:1004F00008958EBD00000DB407FEFDCF8EB50895A2
:10050000CF93CFB7F89480919803811124C0E8EB82
:10051000F0E08491ECECF0E09491E82FF0E0EE0F45
:10052000FF1FEC55FF4FA591B491EC91E92321F405
:1005300061E08AE00E94B5008AE00E9496008CB5D6
:1005400080618CBD8CB580648CBD8DE00E9496006E
:100550008BE00E949600809198038F5F80939803B0
:10056000CFBFCF9108958A549D4FFC01808108959B
:100570008BEC91E008958CEE91E00895FC0184A548
:1005800095A50895EF92FF920F931F93CF93DF935A
:1005900000D000D01F92CDB7DEB7643671054CF0A5
:1005A000FC01EA54FD4F2081F12CE12C222309F4B7
:1005B00052C0DA017B018C01BC01695C7E4FED9178
:1005C000FC910190F081E02DCA010995B801605DB0
:1005D0007E4F2FEFDB012C93F801EF5CFE4F2EEFE7
:1005E000208331968083319690833196292F280F6E
:1005F000209520833196E0821696FC9245E050E0EB
:1006000030E020E07C01B6E0EB0EF11CE416F506CC
:1006100034F0A1912A0F311D4F5F5F4FF7CF7C015E
:10062000E8E0EE0EF11C800F911FFC01E95CFE4F2B
:1006300020952083F9E1EF16F1E0FF06CCF4D80114
:1006400012968D919C91DC01ED91FC910280F381D9
:10065000E02DA7010995C7010F900F900F900F9003
:100660000F90DF91CF911F910F91FF90EF90089520
:1006700083E691E09A83898383E08B8387E092E02D
:100680009D838C83D801ED91FC910190F081E02D48
:10069000AE014F5F5F4F67E070E0C8010995EE243F
:1006A000EA94FE2CD8CF0F931F93CF93DF93CDB74F
:1006B000DEB72A970FB6F894DEBF0FBECDBF8C0110
:1006C00087E591E09A8389831B821C821D821E82AA
:1006D0001F82188619861A86D801ED91FC91019027
:1006E000F081E02DAE014F5F5F4F6AE070E0C8011E
:1006F00009950E946001F80160877187828793875E
:100700002A960FB6F894DEBF0FBECDBFDF91CF9112
:100710001F910F910895CF92DF92EF92FF92DC012B
:100720001D921D921D921C921397FB0130E020E058
:10073000419150E0022E02C0440F551F0A94E2F787
:10074000052E000C660B770BCD90DD90ED90FC90A4
:1007500013974C295D296E297F294D935D936D93E5
:100760007C931397285F3F4F2032310509F7FF90A4
:10077000EF90DF90CF900895FC0140835183128267
:1007800013820895DC015A964D915D916D917C9193
:100790005D97433051056105710591F59296ED9194
:1007A000FC9180819181A281B3818093000190931B
:1007B0000101A0930201B093030184819581A68178
:1007C000B7818093040190930501A0930601B09333
:1007D000070160857185828593850E941218709348
:1007E0000901609308010E9460016093C203709345
:1007F000C3038093C4039093C50381E08093C10336
:10080000089580E492E0089581E692E008958F9241
:100810009F92AF92BF92CF92DF92EF92FF920F938F
:100820001F93CF93DF93EC018B018A81FB018083BF
:100830008B8181838C8182838D818383D12CC12C98
:10084000812C912C540184E0E82EF12CD801AE0DBE
:10085000BF1D4A815B816C817D8184169506A60649
:10086000B706C0F48A899B898C0D9D1DFC012081EF
:100870003181F90120813181BD01F9010995E80E2D
:10088000F91EFFEF8F1A9F0AAF0ABF0A8CE0C80E4D
:10089000D11CDCCF8C898C938D8911968C93119708
:1008A0008E8912968C9312978F8913968C93C70119
:1008B0000496DF91CF911F910F91FF90EF90DF9001
:1008C000CF90BF90AF909F908F900895CF92DF927E
:1008D000FF920F931F93CF93DF93EC018B0102964E
:1008E0000E9407046801C80ED91E2A8DF6012083D4
:1008F0002B8D21832C8D22832D8D23830496D6016D
:1009000040E050E0BA010A8D1B8D2C8D3D8D4017C3
:10091000510762077307F8F48D010C191D092AA10C
:100920003BA1200F311FF901F08001811281238149
:100930001496FC92149715960C93159716961C9383
:10094000169717962C93179704964F5F5F4F6F4F2C
:100950007F4F1496D8CFDF91CF911F910F91FF90C9
:10096000DF90CF9008958BE792E008958CE992E0B4
:1009700008954F925F926F927F928F929F92AF9263
:10098000BF92EF92FF920F931F93CF93DF9300D00C
:1009900000D0CDB7DEB78C017B01CE0101960E945D
:1009A0008B0389819A81AB81BC814C015D0124E07C
:1009B000820E911CA11CB11CA7014D5F5F4FFA0173
:1009C00024E030E02901712C612C481459046A0498
:1009D0007B0428F4618161932F5F3F4FF3CFE80ED2
:1009E000F91EF7011382F80153834283F701448112
:1009F00050E070E060E0F8014483558366837783BC
:100A0000F7012581522BF801448355836683778350
:100A1000F7012681622BF80144835583668377832F
:100A2000F7012781722BF80144835583668377830E
:100A3000F701408550E070E060E0F80140875187A1
:100A400062877387F7012185522BF8014087518710
:100A500062877387F7012285622BF80140875187EF
:100A600062877387F7012385722BF80140875187CE
:100A7000628773870C960F900F900F900F90DF9105
:100A8000CF911F910F91FF90EF90BF90AF909F90EB
:100A90008F907F906F905F904F90089589EB92E0D8
:100AA000089582E291E008958AED92E008958BEF37
:100AB00092E008954F925F926F927F928F929F92F1
:100AC000AF92BF92EF92FF920F931F93CF93DF935A
:100AD00000D000D0CDB7DEB77C018B01FB01819146
:100AE000BF01F7018283CE0101960E948B038981A9
:100AF0009A81AB81BC814C015D01F5E08F0E911CA8
:100B0000A11CB11CA8014C5F5F4FFA0125E030E049
:100B10002901712C612C481459046A047B0428F4BF
:100B2000618161932F5F3F4FF3CFF801E80FF91F09
:100B30001482F7015483438305960F900F900F9012
:100B40000F90DF91CF911F910F91FF90EF90BF9089
:100B5000AF909F908F907F906F905F904F9008958F
:100B60008EE093E008958FE293E008954F925F92B4
:100B70006F927F928F929F92AF92BF92CF92DF92AD
:100B8000EF92FF920F931F93CF93DF93CDB7DEB712
:100B90002C970FB6F894DEBF0FBECDBF7C018B0142
:100BA000DB018C9190E0F7019383828311962C9165
:100BB000922B938382836E5F7F4FCE0101960E94BA
:100BC0008B0389809A80AB80BC8024013501F6E0DC
:100BD0004F0E511C611C711C98012B5F3F4FF90196
:100BE00086E090E0AC0170E060E0441555056605D4
:100BF000770520F4418141930196F4CFB4016A5FF7
:100C00007F4FF801E80DF91D1582D70115963C9329
:100C10002E931497600F711FCE0105960E948B03CF
:100C2000BAE08B0E911C4D805E806F807884C40189
:100C3000092C000CAA0BBB0B5C016D01A40CB51CAC
:100C4000C61CD71CF801E80DF91DAF01401B510B64
:100C500070E060E04A155B056C057D0538F4219174
:100C6000AF0142505109DA012C93EFCF480C591CC7
:100C7000B801640D751DFB0131971082C401019705
:100C8000800F911FF70197838683CE0109960E94FA
:100C90008B0392012C5F3F4F89849A84AB84BC8480
:100CA000A901032E000C660B770B480D591D6A1D18
:100CB0007B1DF801E20FF31FCF01801B910BB0E009
:100CC000A0E084179507A607B70728F48191DF01F4
:100CD00012978C93F1CFC901880D991DF801E80F87
:100CE000F91FDF0111971C9221503109020F131FC8
:100CF000D70119961C930E9318972181428150E0D9
:100D000070E060E0BA0155274427522B2081422B26
:100D10002381722BF7014287538764877587049676
:100D20002C960FB6F894DEBF0FBECDBFDF91CF91EA
:100D30001F910F91FF90EF90DF90CF90BF90AF90F9
:100D40009F908F907F906F905F904F90089588E470
:100D500093E0089589E693E00895FC01DB014C914E
:100D600050E070E060E042835383648375831196A2
:100D70008C911197582B4283538364837583129609
:100D80008C911297682B42835383648375831396E7
:100D90008C911397782B42835383648375831496C5
:100DA0004C91149750E070E060E046835783608771
:100DB000718715968C911597582B468357836087BA
:100DC000718716968C911697682B46835783608798
:100DD000718717968C91782B46835783608771872C
:100DE00088E090E00895DC01FB0112968C91129747
:100DF000808313968C911397818314968C9114970A
:100E0000828315968C911597838316968C911697ED
:100E1000848317968C911797858318968C911897D1
:100E2000868319968C91878388E090E008950F93CC
:100E30001F930091BD071091BE072091BF0730910D
:100E4000C00740E052E16AE770E080E00417150750
:100E50002607370740F476956795579547958F5F36
:100E60008630A1F787E0982F906A969580958170DB
:100E70009CBD8DBD60E08091BC071F910F910C94CB
:100E8000B5001F93CF93DF93182FD62FC42F0E9446
:100E9000170785E00E947902812F0E9479028D2F29
:100EA0000E9479028C2F0E947902DF91CF911F91CD
:100EB0000C940101FF920F931F93CF93DF93C82FE0
:100EC000F62E172F042F0E94170783E00E94790245
:100ED0008C2F0E947902CF2DD12F0C0F1D2F111DA9
:100EE000C017D10729F080E00E9479028993F8CFDA
:100EF000DF91CF911F910F91FF900C940101CF933F
:100F0000C82F0E94170783E00E9479028C2F0E944D
:100F1000790280E00E947902C82F0E9401018C2F83
:100F2000CF910895BF92CF92DF92EF92FF920F93ED
:100F30001F93CF93DF9300D000D01F92CDB7DEB7C1
:100F40008C01000F111F000F111FF801E559FE4F12
:100F500045E0BE016F5F7F4F81810E945A078A8101
:100F6000C98098E0C99E60011124282F30E055E027
:100F7000359527955A95E1F7C20ED31E0D2C000C1E
:100F8000EE08FF0883FF20C092E0CC0CDD1CEE1CB5
:100F9000FF1C9A95D1F78370C80ED11CE11CF11C7F
:100FA000FE2CED2CDC2CCC248B81C80ED11CE11C3A
:100FB000F11CFE2CED2CDC2CCC248C81C80ED11C19
:100FC000E11CF11C6894F7F88D818F70B82EE8E071
:100FD00081E090E0EB1528F1F801E559FE4F8081A2
:100FE0000E947F0783FF02C06894F6F8C092D00386
:100FF000D092D103E092D203F092D303B092D40303
:1010000005591E4F4B2D68ED73E0F80182810E9457
:101010005A0740E0F80163818CE20E94410790E0AA
:1010200080E00F900F900F900F900F90DF91CF9175
:101030001F910F91FF90EF90DF90CF90BF90089598
:10104000CF92DF92EF92FF92CF93C82F482F60EE9E
:101050008FE00E9441070E9460016B017C012AE041
:10106000C20ED11CE11CF11C0E9460016C157D05B3
:101070008E059F0580F48EE00E947F07807EC81356
:10108000F3CF81E091E0892790E0CF91FF90EF903E
:10109000DF90CF90089580E0F5CFFF920F931F93DC
:1010A000CF93DF93C82FF62E172F042F0E94170718
:1010B00082E00E9479028C2F0E947902CF2DD12FDD
:1010C0000C0F1D2F111DC017D10721F089910E940F
:1010D0007902F9CFDF91CF911F910F91FF900C947E
:1010E0000101CF93DF93D82FC62F0E94170782E00C
:1010F0000E9479028D2F0E9479028C2F0E94790222
:10110000DF91CF910C9401018F929F92AF92BF9289
:10111000CF92DF92EF92FF920F931F93CF93DF93C3
:10112000CDB7DEB763970FB6F894DEBF0FBECDBF65
:101130002091B5033091B6034091B7035091B803A5
:101140000E942E1720E030E048E453E40E94FF188C
:101150000E9412187093A8036093A9038091A403BE
:10116000893008F08EC086E0E0E1F1E0DE011E96F5
:1011700001900D928A95E1F75E018EE0A80EB11CF8
:101180004E01E4E18E0E911CF501E190F1905F01BA
:101190008701000F111FF801EE0DFF1DE25CFE4FED
:1011A000C0808C2D0E947F0783FD8CC0D090A4034B
:1011B000F8E0FD1508F465C08091A0039091A103AB
:1011C000A091A203B091A303AC01BD01442777FD18
:1011D0004395552766277727242FAC01BD01442767
:1011E00055276627707488248A94982CA82CFFE1D0
:1011F000BF2E211106C088248A94E7E09E2EA12CE0
:10120000B12C88219921AA21BB21222309F44CC0A9
:101210008C839B83CD01AA27BB27282F220F220F67
:10122000220F207E382F33703860232B2A8335E03D
:10123000969587953A95E1F789838D2D452B462B19
:10124000472B09F080648D834D2D50E068EA73E0F0
:10125000CE0106960E94DE1B45E04D0D0E0D1F1DB2
:10126000F801E25CFE4FBE016F5F7F4F81810E94FB
:101270004D0848E068E08C2D0E9441078C2D0E94AB
:101280007F0763960FB6F894DEBF0FBECDBFDF9128
:10129000CF911F910F91FF90EF90DF90CF90BF9073
:1012A000AF909F908F9008959C0193E0369527957D
:1012B0009A95E1F729838295880F807E8A831C8224
:1012C0001B82BBCFA814B90409F05ECFDACF4F92CE
:1012D0005F926F927F92AF92BF92CF92DF92EF9226
:1012E000FF920F931F93CF93DF93EC015B01FB0100
:1012F000C080D180E280F3808A819B81AC81BD81F6
:101300008C159D05AE05BF0560F48CE08C9DB00189
:101310008D9D700D11248A899B890E94211B9B8BB6
:101320008A8BCA82DB82EC82FD82F12CE12C412C7B
:10133000512C320104E010E06E01F6E0CF0ED11C1A
:10134000F501E00FF11F8A819B81AC81BD814816B8
:1013500059066A067B06C8F4BF01C6010E94B9049B
:10136000080F191FAA89BB89AE0DBF1D8CE0F601BD
:1013700001900D928A95E1F78FEF481A580A680A92
:10138000780AECE0EE0EF11CDBCF808190E0B0E05B
:10139000A0E08C8B9D8BAE8BBF8B2181922B8C8B95
:1013A0009D8BAE8BBF8B2281A22B8C8B9D8BAE8BAA
:1013B000BF8B2381B22B8C8B9D8BAE8BBF8BC801D7
:1013C0000496DF91CF911F910F91FF90EF90DF90E6
:1013D000CF90BF90AF907F906F905F904F900895A7
:1013E000AF92BF92CF92DF92EF92FF920F931F9333
:1013F000CF93DF93EC018B0102960E946709080FDF
:10140000191FF80120813181C280D12CF12CE12CEF
:101410007601DD24CC24D32AC22A2381F22A5C015E
:10142000F4E0AF0EB11C8A8D9B8DAC8DBD8D8C15FB
:101430009D05AE05BF0558F4B601660F771F660F10
:10144000771F8AA19BA10E94211B9BA38AA3CA8EFE
:10145000DB8EEC8EFD8E9801C12CD12C7601AE0175
:10146000425E5F4F8A8D9B8DAC8DBD8DC816D906AF
:10147000EA06FB0650F5F9016581868190E0B0E04F
:10148000A0E0DC0199278827962B6481862B678151
:10149000B62B8E8F9F8FA8A3B9A3F4E0AF0EB11C1B
:1014A000C901801B910BAAA1BBA1A80FB91F84E0A1
:1014B000FA0101900D928A95E1F78FEFC81AD80AC8
:1014C000E80AF80A2C5F3F4FCDCFC501DF91CF91DD
:1014D0001F910F91FF90EF90DF90CF90BF90AF9052
:1014E00008950F931F93CF93DF938C01EC01269601
:1014F000CE010E94F009D8019A96ED91FC91CE019F
:10150000DF91CF911F910F9109942F923F924F92AB
:101510005F926F927F928F929F92AF92BF92CF9283
:10152000DF92EF92FF920F931F93CF93DF93CDB78C
:10153000DEB72E970FB6F894DEBF0FBECDBF8C017D
:101540006B01DB018D909D90AD90BC90FC01828180
:101550009381A481B58188159905AA05BB0570F40E
:10156000B401660F771F660F771F828593850E94EF
:10157000211BD8011B969C938E931A97F8018282A7
:101580009382A482B582C60140E050E0BA01A4E093
:10159000EA2EF12C98012A5F3F4FDC011596EC9161
:1015A000159716964C901697512C712C612C320180
:1015B000552444245E2A1496EC9114974E2A1796CB
:1015C000EC917E2AD7011701E4E02E0E311C710147
:1015D0000496F80182809380A480B580481559054F
:1015E0006A057B05A8F44682578260867186149747
:1015F000A284B384AA0DBB1DE4E0BE2EF9010190C4
:101600000D92BA94E1F74F5F5F4F6F4F7F4FC5CF99
:1016100084859585A685B78584159505A605B705A6
:1016200070F4B201660F771F660F771F8489958962
:101630000E94211BD80155969C938E935497F801D4
:101640004486558666867786C601820D931D412C99
:10165000512C32011C019801205F3F4FDC01119693
:101660006C91119712968C901297912CB12CA12C01
:10167000540199248824962A6C91862A13966C9199
:10168000B62AB4E0EB0EF11CF80144855585668559
:1016900077854416550666067706C0F4808A918AD7
:1016A000A28AB38ABC0162197309A489B589A60FFD
:1016B000B71F64E0F90101900D926A95E1F7BFEF61
:1016C0004B1A5B0A6B0A7B0A0496C8CF86899789F6
:1016D000A08DB18D88159905AA05BB0560F4B401EC
:1016E000660F771F848D958D0E94211BD8015D9612
:1016F0009C938E935C97F801868A978AA08EB18E10
:10170000412C512C32011801FAE12F0E311CF80145
:1017100086899789A08DB18D481659066A067B0681
:1017200008F05CC0B6016E0D7F1DCE0101960E94CF
:101730008B0397012C5F3F4F3E872D8789809A80CE
:10174000AB80BC80C901032E000CAA0BBB0BAC0103
:10175000BD01480D591D6A1D7B1D49875A876B873E
:101760007C87F901EC0DFD1D9F012C193D09B90184
:1017700090E080E029853A854B855C856217730788
:101780008407950728F42191DF0112972C93ECCF61
:10179000ED84FE84E80CF91CF601EE0DFF1D319777
:1017A00010828D859E8501978C0D9D1DD8015B96BD
:1017B0009C938E935A97C201880F991F5C96ED9166
:1017C000FC91E80FF91FD1018D919C919183808349
:1017D000BFEF4B1A5B0A6B0A7B0A99CFC7012E96A3
:1017E0000FB6F894DEBF0FBECDBFDF91CF911F9132
:1017F0000F91FF90EF90DF90CF90BF90AF909F90B0
:101800008F907F906F905F904F903F902F900895B2
:101810002F923F924F925F926F927F928F929F9200
:10182000AF92BF92CF92DF92EF92FF920F931F93EE
:10183000CF93DF93CDB7DEB7A6970FB6F894DEBF90
:101840000FBECDBF8C010E9460014B015C0198016D
:1018500025543D4F3E8B2D8BF90180819181A281D2
:10186000B38175016401C81AD90AEA0AFB0AD701D3
:10187000C601893F9A42A105B10510F03597108243
:10188000180134E5231A3DEF330AD1018D919C9163
:10189000892B79F0F801E154FD4F80819181A2817B
:1018A000B38188159905AA05BB0518F4F1011182C9
:1018B000108298012C543D4F3A8B298BA80140553A
:1018C0005D4F5C8B4B8BC8014896988F8F8BD801EE
:1018D000AA54BD4FBC8FAB8FF801EC53FD4FFE8F68
:1018E000ED8F215F3F4F38A32F8F42505109588B06
:1018F0004F8786569D4F9A8F898F1996BAA3A9A3B1
:10190000A50194012C5E3F4F4F4F5F4F2BA33CA38B
:101910004DA35EA3F80184899589A689B789892B8F
:101920008A2B8B2BB9F5D80112968D919C91DC01F5
:10193000ED91FC910284F385E02D09959C0197FFC0
:101940003DC0F801EA54FD4F8081882301F1780100
:10195000B9E4EB1ABDEFFB0AF70180819181A28106
:10196000B381A5019401281B390B4A0B5B0BDA01EB
:10197000C901853C9940A105B10548F0C8010E9404
:101980005303D7018D929D92AD92BC92139790E034
:1019900080E0B8C10E946001681979098A099B0931
:1019A000F801C488D588E688F788C616D706E80601
:1019B000F90608F0B8CF8EEF9FEFA4C1A989BA89C4
:1019C0008D919C911197820F931F8D939C93F101A0
:1019D0004081518147305105F9F4A98DBA8D8D911F
:1019E0009C911197AC014F5F5F4F4D935C93800FBB
:1019F000911FFC01208FAF85B8898D919C91119723
:101A000001978D939C93892B09F084CF88E090E017
:101A1000F101918380837ECF4115510521F52F3F40
:101A2000310581F481E090E091838083CBA0DCA03C
:101A3000EDA0FEA0A9A1BAA1CD92DD92ED92FC92FB
:101A4000139768CF0E946001681979098A099B0978
:101A5000693873418105910508F45CCFF801EA54B7
:101A6000FD4F1082A8CF4130510589F42E3F31053A
:101A700019F482E090E0CCCF11821082EB8DFC8DC6
:101A80008081811147CFC8010E94530343CF423068
:101A9000510591F4AF85B8892D933C93E98DFA8D6A
:101AA0001182108283E090E0D1018D939C93E989AB
:101AB000FA89318320832ECF4330510571F4322FC0
:101AC0002227AF85B8898D919C911197280F391FD6
:101AD0002D933C9384E090E09BCF4430510579F402
:101AE00060E071E00E94C4168F3F910529F485E003
:101AF00090E0918380830ECF118210820BCF45300E
:101B0000510569F4AB89BC892D933C9386E090E044
:101B100091838083A989BA892D933C93FBCE46306B
:101B20005105A1F4322F2227EB89FC898081918114
:101B3000280F391F3183208387E090E0D1018D93F6
:101B40009C93EF85F889808191815DCF4830510564
:101B500009F0E0CE1182108260E071E00E94C416AC
:101B60008F3F910509F0D6CEAB89BC89ED91FC91F0
:101B7000309709F0E0C0C8010E9453038BE491E064
:101B80009A8389831C821B828FE392E09E838D83DC
:101B900098878F839A8789871B861C861D861E8659
:101BA0006801B8EBCB1ABDEFDB0A7801E6E8EE1A64
:101BB000EDEFFE0A28E1422E55245394612C712C3E
:101BC000D601ED91FC913097A9F1848195819C8398
:101BD0008B83808191819E838D8382819381DC01BF
:101BE000ED91FC910480F581E02D099598878F8314
:101BF000D601ED91FC9182819381DC01ED91FC9104
:101C00000680F781E02D09959A8789874B865C8647
:101C10006D867E86D601ED91FC9160857185D80137
:101C2000ED91FC910190F081E02DAE014F5F5F4F8F
:101C3000C8010995B2E0CB0ED11CEC14FD0409F0EB
:101C4000BFCF98E1492E55245394612C712CF70194
:101C5000A081B1811097E1F112968D919C9113971B
:101C60009C838B8314968D919C9115979E838D8375
:101C7000ED91FC9111970480F581E02DCD0109953E
:101C800098878F83D7018D919C91DC01ED91FC9118
:101C90000680F781E02D09959A8789874B865C86B7
:101CA0006D867E86D801ED91FC91C080D180F701D0
:101CB00080819181DC01ED91FC910280F381E02D26
:101CC0000995AE014F5F5F4FBC01C801F601099550
:101CD000F2E0EF0EF11CE214F30409F0B8CFF801C2
:101CE000EA54FD4F81E08083319680829182A28206
:101CF000B382AD89BE898D929D92AD92BC921397AD
:101D00008FEF9FEFA6960FB6F894DEBF0FBECDBF44
:101D1000DF91CF911F910F91FF90EF90DF90CF90C7
:101D2000BF90AF909F908F907F906F905F904F90FB
:101D30003F902F900895EA30F10509F0A1C087E5A2
:101D400091E09A8389831B821C821D821E821F82DE
:101D5000188619861A860E946001F801C084D18411
:101D6000E284F3849B01AC012C193D094E095F0903
:101D700069017A016F89788DCE0101960E94AD06C6
:101D8000C701B60128EE33E040E050E00E94D816CB
:101D900069017A019B01AC018B819C81AD81BE817F
:101DA0008C0D9D1DAE1DBF1D8B839C83AD83BE839B
:101DB00060E472E48FE090E00E94B416CF80D88493
:101DC000E984FA84DC01CB018C0D9D1DAE1DBF1D85
:101DD0008F839887A987BA870E946001CF80D884B3
:101DE000E984FA8436E3D31A35E6E30A34ECF30ADD
:101DF00028EE33E040E050E00E94D81629013A0175
:101E00009B01AC0160E472E48FE090E00E94B416A4
:101E1000A7019601261B370B480B590BCA01B901C4
:101E20002B813C814D815E8121503109410951094D
:101E300069017A01C418D508E608F70826013701B8
:101E400020E03AEC4AE95BE30E94D816420E531EAA
:101E5000641E751ED8011C964D925D926D927C9207
:101E60001F97F801608B718B828B938B0E946001AE
:101E7000AD89BE896D937D938D939C9313974ACDC5
:101E8000E630F10559F46F89788D8D8D9E8D0E9415
:101E9000850A81E0EF8DF8A180833CCDEB30F10520
:101EA00021F4AB8DBC8D1C9235CDE752FF4FEE0F68
:101EB000FF1FE00FF11F80819181009709F42ACD67
:101EC000DC01ED91FC910190F081E02D6F89788D1E
:101ED000099520CDEF92FF920F931F93CF93DF933D
:101EE0008C01EB01FC01A281B381FD010190002076
:101EF000E9F731977F01EA1AFB0AA70170E060E079
:101F0000CE010E94BC03F80162817381A701CE015A
:101F100004960E94DE1BCE0DDF1DF80184818C83A8
:101F200085818D8386818E8387818F838085888755
:101F30008185898782858A8783858B87C7010C96EF
:101F4000DF91CF911F910F91FF90EF9008954F92E5
:101F50005F926F927F928F929F92AF92BF92CF9239
:101F6000DF92EF92FF920F931F93CF93DF93EC01D9
:101F70007B018A81FB0180838B8181838C818283B9
:101F80008D8183833496412C512C320104E010E082
:101F90009F012F5F3F4FCF010296DF011396A801EB
:101FA0000C5F1F4F8A809B80AC80BD804814590411
:101FB0006A047B04C8F4AA85BB85A40FB51F1497D7
:101FC0004C9111962C91119712969C911297139601
:101FD0008C9140832183928383838FEF481A580A20
:101FE000680A780A3496D4CF4C8540834D85F90130
:101FF00040832E85FC0120838F858C93F701E00FB1
:10200000F11F412C512C3201AF019F012F5F3F4F37
:10201000CF010296DF0113960C5F1F4F8C849D84C5
:10202000AE84BF84481459046A047B04D8F4CF01F9
:10203000841B950BAC89BD89A80FB91F3C911196E3
:102040002C91119712969C91129713968C91308334
:102050002183928383838FEF481A580A680A780A8B
:102060003496D3CF4E8940834F89F9014083288D20
:10207000FC012083898D8C93412C512C32018E8957
:102080009F89A88DB98D481659066A067B0680F58A
:102090005201AA0CBB1CEC8DFD8DEA0DFB1DA0812D
:1020A000B181FD0101900020E9F731976F01CA1A53
:1020B000DB0AA60170E060E0C701800F911F0E945B
:1020C000BC030C5F1F4F8C8D9D8DA80EB91EF501B2
:1020D00060817181A601C701800F911F0E94DE1BE4
:1020E0000C0D1D1DFFEF4F1A5F0A6F0A7F0AC7CF45
:1020F000C801DF91CF911F910F91FF90EF90DF907A
:10210000CF90BF90AF909F908F907F906F905F9097
:102110004F900895EF92FF920F931F93CF93DF9309
:102120008C017B01DC0112962C911297FB0121930B
:10213000CF011396ED91FC91EF0109900020E9F792
:102140002197CE1BDF0BAE0170E060E00E94BC0364
:10215000D80113966D917C91AE01C70105960E943E
:10216000DE1BCE010596DF91CF911F910F91FF905D
:10217000EF900895CF92DF92EF92FF920F931F930B
:10218000CF93DF936C01EB01DC0112968C911297D7
:10219000888313968C91139789831496ED91FC9103
:1021A000DF010D900020E9F78D01015011090E1B90
:1021B0001F0BA80170E060E0CE0102960E94BC03F4
:1021C000F60164817581A801CE0106960E94DE1B8E
:1021D000C8010696F601A681B781FD010190002095
:1021E000E9F731977F01EA1AFB0AA70170E060E086
:1021F0008C0F9D1F0E94BC03065F1F4FD6011696D1
:102200006D917C91A701CE01800F911F0E94DE1B72
:102210000E0D1F1DF601A085B185FD010190002066
:10222000E9F731977F01EA1AFB0AA70170E060E045
:10223000CE01800F911F0E94BC030C5F1F4FD6017F
:1022400018966D917C91A701CE01800F911F0E947D
:10225000DE1BC701800F911FF6016285438534851F
:102260002585C80FD91F688349833A832B83049639
:10227000DF91CF911F910F91FF90EF90DF90CF9062
:1022800008951F920F920FB60F9211242F933F9330
:102290008F939F93AF93BF938091C7039091C8038F
:1022A000A091C903B091CA033091C60323E0230F64
:1022B0002D3758F50196A11DB11D2093C6038093BB
:1022C000C7039093C803A093C903B093CA03809136
:1022D000CB039091CC03A091CD03B091CE03019696
:1022E000A11DB11D8093CB039093CC03A093CD038C
:1022F000B093CE03BF91AF919F918F913F912F915A
:102300000F900FBE0F901F90189526E8230F02968E
:10231000A11DB11DD2CF1F920F920FB60F921124A3
:102320002F933F934F935F936F937F938F939F93DD
:10233000AF93BF93EF93FF9380EE93E00E94EA0187
:10234000FF91EF91BF91AF919F918F917F916F918D
:102350005F914F913F912F910F900FBE0F901F9063
:1023600018951F920F920FB60F9211242F938F93EF
:102370009F93EF93FF93E091F003F091F10380813D
:10238000E091F603F091F70382FD1BC090818091EC
:10239000F9038F5F8F732091FA03821741F0E09168
:1023A000F903F0E0E052FC4F958F8093F903FF9121
:1023B000EF919F918F912F910F900FBE0F901F90D3
:1023C00018958081F4CF0F931F93CF93DF93C0EEC6
:1023D000D3E01B821A8288EE93E0A0E0B0E08C8309
:1023E0009D83AE83BF8387E791E09983888385ECE3
:1023F00090E09D878C8784EC90E09F878E8780ECAF
:1024000090E0998B888B81EC90E09B8B8A8B82EC9F
:1024100090E09D8B8C8B86EC90E09F8B8E8B198E41
:102420001A8E1B8E1C8E0CEB17E08DE794E0D80102
:1024300016969C938E9315970E9480028AE0F8016D
:10244000808380E896E9A8E9B0E081839283A38342
:10245000B4838AE00E94960061E0D8018C910E94CA
:10246000B500EAEDF4E089EB91E091838083D383BA
:10247000C28380E091EEA0E0B0E084839583A683E0
:10248000B7831086118612861386148615861686E3
:102490001786108A118A128A138A148A158A168A54
:1024A000178A88E191E0E2EFF4E0DF019C011D92E0
:1024B00021503040E1F7EAE0F6E0DF019C011D9297
:1024C00021503040E1F782E3E2E2F7E0DF01282F1C
:1024D0001D922A95E9F7E4E5F7E0DF011D928A9560
:1024E000E9F71092870710928607109289071092D9
:1024F000880710928B0710928A0710928D0710920E
:102500008C0710928F0710928E07109290071092EE
:1025100091071092920710929307109294071092CD
:1025200095071092960710929707109298071092AD
:10253000990710929A0710929B0710929C0710928D
:102540009D078DEA91E090939F0780939E071092DC
:10255000A0071092A1071092A2071092A307109251
:10256000A4071092A5071092A6071092A707109231
:10257000A9071092A8071092AA071092AB07109211
:10258000AC071092AD071092AE071092AF071092F1
:10259000B0071092B1071092B3071092B2071092D1
:1025A000B4071092B5071092B6071092B7071092B1
:1025B000B9071092B8071092BB071092BA07E6EB62
:1025C000F4E061EA71E07183608345E951E053838F
:1025D0004283148215821682178229E831E03187FE
:1025E00020878FE392E0938782871486158616866C
:1025F0001786108A118A128A138A158A148A168AF3
:10260000178A108E118E128E138E148E158E168EC2
:10261000178E10A211A213A212A2ACEAB4E0C7E76F
:10262000D3E01196DC93CE931396FC93EE9312971E
:1026300019961C921E921897EEE7F4E0A3ECB1E015
:10264000B183A08377836683518740871286138680
:102650001486158637872687918B808B128A138A7A
:10266000148A158A168A178A108E118E138E128E6E
:10267000148E158E168E178E10A211A212A213A2FE
:1026800014A215A216A217A211A610A682EC93E01E
:1026900093A782A781E090E095A784A783E893E0C1
:1026A00095838483DF91CF911F910F910895CF93EC
:1026B000DF93CDB7DEB7A2970FB6F894DEBF0FBE9B
:1026C000CDBF789484B5826084BD84B5816084BDBB
:1026D00085B5826085BD85B5816085BD80916E00C0
:1026E000816080936E0010928100809181008260F1
:1026F000809381008091810081608093810080912E
:1027000080008160809380008091B100846080931C
:10271000B1008091B00081608093B00080917A0018
:10272000846080937A0080917A00826080937A003E
:1027300080917A00816080937A0080917A0080682D
:1027400080937A001092C1000E9480028FEF91E086
:10275000A0E0B0E08093A0039093A103A093A20314
:10276000B093A30388E08093A403E8EAF3E0DF01D9
:102770001D928A95E9F70E94170780EC0E94790262
:102780000E9401010E942B018E010F5F1F4F8EE0FE
:10279000F80111928A95E9F74EE0B80180E30E94B2
:1027A0004D084EE0B80180E40E944D084EE0B801AB
:1027B00080E50E944D0860E080E60E94710860E0BC
:1027C00080E70E94710863EA8BE20E94710844E08E
:1027D00067E680E60E94410741E067E680E70E94E5
:1027E00041078CE0E6E1F1E0DE011F9601900D92D9
:1027F0008A95E1F76E01FFE0CF0ED11CF12CE12CA0
:1028000058E0B52ED6010D911D916D0180E80E9412
:102810002008892B71F40230110509F462C208F016
:1028200016C20115110509F41EC20130110509F483
:102830005EC280E80E942008892B61F460E08AE291
:102840000E94710860ED89E20E94710862E888E2E6
:102850000E94710880E00E94200880E092ECA1E0D4
:10286000B0E08093DE049093DF04A093E004B09383
:10287000E104E091DC04F091DD04A089B18982E0FB
:102880008C93A485B5851C92A685B78580E18C9331
:10289000108EA489B58986E08C93A289B3898C9126
:1028A00080618C93A289B3898C9188608C93A28972
:1028B000B3898C9180688C930288F389E02D8081A4
:1028C0008F7D808310928707109286071092890768
:1028D0001092880710928D0710928C0710928B0728
:1028E00010928A07E2E2F7E090E080E021913191D6
:1028F000232B09F00FC2FC01EE0FFF1FEE5DF84F16
:102900002CEA34E03183208383589F4F9093B104A5
:102910008093B0048AED94E09093B3048093B20462
:10292000E4E5F7E090E080E021913191232B09F07C
:10293000F7C1FC01EE0FFF1FEC5AF84F2EE734E011
:10294000318320838C599F4F90938104809380041E
:1029500080E0282E80E0382E0E9460012091C10383
:10296000222309F4EAC10091C2031091C30320910C
:10297000C4033091C503601B710B820B930B0E9443
:10298000481820E030E04AE754E40E94A0176B01A9
:102990007C018090040190900501A0900601B09008
:1029A00007016091080170910901072E000C880B46
:1029B000990B0E944A18A50194010E94A0179B013F
:1029C000AC01C701B6010E949B1787FFAFC12BED79
:1029D0003FE049EC50E4C501B4010E94FF18A70193
:1029E00096010E94FF180E946C19209100013091FD
:1029F000010140910201509103010E94FF184B0117
:102A00005C010E948408C090BD03D090BE03E0909A
:102A1000BF03F090C003C092B903D092BA03E09212
:102A2000BB03F092BC030E94170780EA0E94790260
:102A300080E00E947902182F0E94010190E080E05E
:102A400010FD04C011FF4DC081E090E00E9492078C
:102A5000892B09F046C08091D0039091D103A091B9
:102A6000D203B091D30385309240A105B105C9F5D9
:102A70006091D8037091D90376276727762790E075
:102A800080E00E94481820E030E040E059E30E94D6
:102A9000FF1820E030E044EB53E40E94FF186093FD
:102AA000BD037093BE038093BF039093C0038091D6
:102AB000DA039091DB039827892798279093B40332
:102AC0008093B3038091DC039091DD0398278927DD
:102AD00098279093B2038093B1038091DE03809393
:102AE000B0034090BD035090BE036090BF03709050
:102AF000C003A7019601C301B2010E942E176B010A
:102B00007C0120E030E044E353E40E94FA181816F8
:102B10000CF017C120E030E044EB53E4C701B601EC
:102B20000E942E176B017C012091B5033091B603F2
:102B30004091B7035091B803C701B6010E942F1707
:102B40006B017C01C092B503D092B603E092B7034B
:102B5000F092B80386E090E0A0E0B0E08093D0046B
:102B60009093D104A093D204B093D30488E190E071
:102B70000E94FC198C019093D9048093D804DC0145
:102B80004D925D926D927C921397FC0184829582A6
:102B9000A682B7821896CD92DD92ED92FC921B9799
:102BA0006091B3037091B403072E000C880B990B4E
:102BB0000E944A18F8016487758786879787609115
:102BC000B1037091B203072E000C880B990B0E9481
:102BD0004A18D80150966D937D938D939C9353978B
:102BE0006091B003062E000C770B880B990B0E94A6
:102BF0004A18F801648B758B868B978B8091B20491
:102C00009091B3046091B0047091B104DC01ED9136
:102C1000FC910190F081E02D46EB54E009958AED9E
:102C200094E00E94080C0E942B018091D80490919E
:102C3000D9040E94981A2114310409F48DCE0E94FF
:102C4000D601882309F488CE0E94000085CE043086
:102C5000110509F44AC008F446C00530110509F011
:102C6000E8CD88E101C080E0B1E0EB16F10409F0A5
:102C700040C01E8E1D8EBC8E1B8E44E0BE01655E64
:102C80007F4F0E944D08EFEFEE1AFE0AF6E0EF16B6
:102C9000F10409F0B7CD18A21F8E81E090E09AA34D
:102CA00089A38E01015E1F4F6E0123E2C20ED11C6B
:102CB00048E0B42ED801ED90FD908D0180E80E948F
:102CC0002008892B09F0B5CD1E8E1D8EBC8E1B8E63
:102CD000E114F10499F0EA94EF2809F0AACD84E216
:102CE0000EC088E0C1CF80E1BFCF84E1BDCF84E0DA
:102CF000BBCF1B8E1C8E1E8E1D8EBFCF80E244E08C
:102D0000BE01655E7F4F0E944D080C151D0509F43C
:102D100090CDD0CF01968931910509F0E7CD00CE55
:102D200001968931910509F0FFCD12CE60E070E087
:102D3000CB010E9484081092C103812C912C540174
:102D400062CE20E030E044E353ECC701B6010E94BC
:102D50009B1787FFE9CE20E030E044EB53E4C70146
:102D6000B6010E942F17DECEDB018F939F930E9446
:102D7000FA16BF91AF91A29F800D911DA39F900D58
:102D8000B29F900D1124089597FB072E16F400941E
:102D900007D077FD09D00E94051707FC05D03EF447
:102DA000909581959F4F0895709561957F4F0895F7
:102DB000A1E21A2EAA1BBB1BFD010DC0AA1FBB1F3F
:102DC000EE1FFF1FA217B307E407F50720F0A21BB1
:102DD000B30BE40BF50B661F771F881F991F1A941E
:102DE00069F760957095809590959B01AC01BD0148
:102DF000CF0108950E941F17A59F900DB49F900DBD
:102E0000A49F800D911D11240895AA1BBB1B51E1A5
:102E100007C0AA1FBB1FA617B70710F0A61BB70B4A
:102E2000881F991F5A95A9F780959095BC01CD01EF
:102E30000895EE0FFF1F0590F491E02D0994A29FD5
:102E4000B001B39FC001A39F700D811D1124911D7E
:102E5000B29F700D811D1124911D08955058BB27FC
:102E6000AA270E9446170C94C0180E94B21838F086
:102E70000E94B91820F039F49F3F19F426F40C94FD
:102E8000AF180EF4E095E7FB0C94A918E92F0E9407
:102E9000D11858F3BA17620773078407950720F013
:102EA00079F4A6F50C94F3180EF4E0950B2EBA2FD6
:102EB000A02D0B01B90190010C01CA01A001112440
:102EC000FF27591B99F0593F50F4503E68F11A16EC
:102ED000F040A22F232F342F4427585FF3CF46957D
:102EE00037952795A795F0405395C9F77EF41F169F
:102EF000BA0B620B730B840BBAF09150A1F0FF0F69
:102F0000BB1F661F771F881FC2F70EC0BA0F621F54
:102F1000731F841F48F4879577956795B795F79544
:102F20009E3F08F0B0CF9395880F08F09927EE0FD9
:102F30009795879508950E94851808F481E0089573
:102F40000E94B4170C94C0180E94B91858F00E943F
:102F5000B21840F029F45F3F29F00C94A9185111E0
:102F60000C94F4180C94AF180E94D11868F39923AC
:102F7000B1F3552391F3951B550BBB27AA27621775
:102F80007307840738F09F5F5F4F220F331F441F82
:102F9000AA1FA9F335D00E2E3AF0E0E832D09150B6
:102FA0005040E695001CCAF72BD0FE2F29D0660FA3
:102FB000771F881FBB1F261737074807AB07B0E8E6
:102FC00009F0BB0B802DBF01FF2793585F4F3AF0EC
:102FD0009E3F510578F00C94A9180C94F4185F3FAB
:102FE000E4F3983ED4F3869577956795B795F79572
:102FF0009F5FC9F7880F911D9695879597F908955A
:10300000E1E0660F771F881FBB1F621773078407F5
:10301000BA0720F0621B730B840BBA0BEE1F88F704
:10302000E09508950E9419186894B1110C94F41851
:1030300008950E94D91888F09F5798F0B92F9927C2
:10304000B751B0F0E1F0660F771F881F991F1AF093
:10305000BA95C9F714C0B13091F00E94F318B1E0ED
:1030600008950C94F318672F782F8827B85F39F0EC
:10307000B93FCCF3869577956795B395D9F73EF42C
:1030800090958095709561957F4F8F4F9F4F0895D4
:10309000E89409C097FB3EF49095809570956195F2
:1030A0007F4F8F4F9F4F9923A9F0F92F96E9BB27A8
:1030B0009395F695879577956795B795F111F8CF24
:1030C000FAF4BB0F11F460FF1BC06F5F7F4F8F4F8F
:1030D0009F4F16C0882311F096E911C0772321F085
:1030E0009EE8872F762F05C0662371F096E8862F1D
:1030F00070E060E02AF09A95660F771F881FDAF774
:10310000880F9695879597F90895990F0008550FA0
:10311000AA0BE0E8FEEF16161706E807F907C0F05D
:1031200012161306E407F50798F0621B730B840B65
:10313000950B39F40A2661F0232B242B252B21F43F
:1031400008950A2609F4A140A6958FEF811D811DDF
:10315000089597F99F6780E870E060E008959FEF19
:1031600080EC089500240A9416161706180609061E
:10317000089500240A9412161306140605060895ED
:10318000092E0394000C11F4882352F0BB0F40F475
:10319000BF2B11F460FF04C06F5F7F4F8F4F9F4FB5
:1031A000089557FD9058440F551F59F05F3F71F037
:1031B0004795880F97FB991F61F09F3F79F087959E
:1031C0000895121613061406551FF2CF4695F1DF27
:1031D00008C0161617061806991FF1CF86957105B7
:1031E000610508940895E894BB2766277727CB01EB
:1031F00097F908950E94851808F48FEF08950E94AA
:1032000012190C94C0180E94B21838F00E94B91814
:1032100020F0952311F00C94A9180C94AF181124E8
:103220000C94F4180E94D11870F3959FC1F3950F78
:1032300050E0551F629FF001729FBB27F00DB11D3A
:10324000639FAA27F00DB11DAA1F649F6627B00DCA
:10325000A11D661F829F2227B00DA11D621F739FB3
:10326000B00DA11D621F839FA00D611D221F749FC1
:103270003327A00D611D231F849F600D211D822F08
:10328000762F6A2F11249F5750409AF0F1F088232F
:103290004AF0EE0FFF1FBB1F661F771F881F91505C
:1032A0005040A9F79E3F510580F00C94A9180C944A
:1032B000F4185F3FE4F3983ED4F3869577956795CD
:1032C000B795F795E7959F5FC1F7FE2B880F911D86
:1032D0009695879597F908959F930E9476190F9078
:1032E00007FCEE5F0C949F190C94AF180E94D9183C
:1032F000D8F3E894E0E0BB279F57F0F02AED3FE0D9
:1033000049EC06C0EE0FBB0F661F771F881F28F021
:10331000B23A62077307840728F0B25A620B730B44
:10332000840BE3959A9572F7803830F49A95BB0F29
:10333000661F771F881FD2F790480C94B519EF933A
:10334000E0FF07C0A2EA2AED3FE049EC5FEB0E94F4
:1033500046170E94C0180F90039401FC9058E8E6AD
:10336000F0E00C94C1199F3F31F0915020F4879503
:1033700077956795B795880F911D9695879597F9DD
:1033800008959F938F937F936F93FF93EF939B0188
:10339000AC010E94FF18EF91FF910E94D5192F9167
:1033A0003F914F915F910C94FF18DF93CF931F9340
:1033B0000F93FF92EF92DF927B018C01689406C01D
:1033C000DA2EEF010E941219FE01E894A5912591D1
:1033D000359145915591A6F3EF010E944617FE01E4
:1033E0009701A801DA9469F7DF90EF90FF900F91B1
:1033F0001F91CF91DF9108950F931F93CF93DF9388
:103400008230910510F482E090E0E091CA07F091DB
:10341000CB0730E020E0B0E0A0E0309799F4211530
:10342000310509F44AC0281B390B24303105D8F581
:103430008A819B816115710589F1FB0193838283E8
:10344000FE0111C040815181028113814817590743
:10345000E0F04817590799F4109761F012960C9311
:10346000129713961C933296CF01DF91CF911F9143
:103470000F9108950093CA071093CB07F4CF21153D
:10348000310551F04217530738F0A901DB019A01C9
:10349000BD01DF01F801C1CFEF01F9CF9093CB0758
:1034A0008093CA07CDCFFE01E20FF31F8193919362
:1034B0002250310939832883D7CF2091C807309112
:1034C000C907232B41F420910C0130910D01309359
:1034D000C9072093C80720910A0130910B012115DB
:1034E000310541F42DB73EB740910E0150910F01C7
:1034F000241B350BE091C807F091C907E217F307C9
:10350000A0F42E1B3F0B2817390778F0AC014E5F53
:103510005F4F2417350748F04E0F5F1F5093C907C0
:103520004093C807819391939FCFF0E0E0E09CCF58
:10353000CF93DF930097E9F0FC0132971382128258
:10354000A091CA07B091CB07ED0130E020E01097C1
:10355000A1F420813181820F931F2091C8073091FF
:10356000C9072817390709F061C0F093C907E0932C
:10357000C807DF91CF910895EA01CE17DF07E8F57C
:103580004A815B819E0141155105B1F7E901FB8339
:10359000EA8349915991C40FD51FEC17FD0761F4D7
:1035A000808191810296840F951FE9019983888318
:1035B000828193819B838A83F0E0E0E012968D9173
:1035C0009C9113970097B9F52D913C911197CD01DE
:1035D0000296820F931F2091C8073091C9072817C0
:1035E000390739F6309751F51092CB071092CA0778
:1035F000B093C907A093C807BCCFD383C2834081CF
:103600005181840F951FC817D90761F44E5F5F4F32
:1036100088819981480F591F518340838A819B81FA
:10362000938382832115310509F0B0CFF093CB0746
:10363000E093CA079ECFFD01DC01C0CF1382128246
:10364000D7CFB0E0A0E0E7E2FBE10C94E91B8C01EE
:10365000009751F4CB010E94FC198C01C801CDB731
:10366000DEB7E0E10C94051CFC01E60FF71F9C019E
:1036700022503109E217F30708F49DC0D901CD911A
:10368000DC911197C617D70798F0C530D10530F3F4
:10369000CE0104978617970708F3C61BD70B22970E
:1036A000C193D1936D937C93CF010E94981AD6CF8A
:1036B0005B01AC1ABD0A4C018C0E9D1EA091CA077D
:1036C000B091CB07512C412CF12CE12C109731F506
:1036D0008091C8079091C9078815990509F05CC0C9
:1036E0004616570608F058C080910A0190910B01C8
:1036F000009741F48DB79EB740910E0150910F0194
:10370000841B950BE817F90708F055C0F093C9071B
:10371000E093C807F90171836083A0CF8D919C91DC
:10372000119712966C90129713967C901397A81588
:10373000B90559F56C0142E0C40ED11CCA14DB0472
:1037400020F1AC014A195B09DA011296159780F055
:103750006282738251834083D9016D937C93E1141B
:10376000F10471F0D7011396FC93EE93129776CF84
:1037700022968C0F9D1FF90191838083F301EFCF77
:10378000F093CB07E093CA0769CF4816590608F4AF
:103790002C017D01D3019ACFCB010E94FC197C0141
:1037A000009749F0AE01B8010E94DE1BC8010E94DB
:1037B000981A870153CF10E000E050CFFB01DC01E5
:1037C00002C001900D9241505040D8F708952F92B9
:1037D0003F924F925F926F927F928F929F92AF92A1
:1037E000BF92CF92DF92EF92FF920F931F93CF93EE
:1037F000DF93CDB7DEB7CA1BDB0B0FB6F894DEBF85
:103800000FBECDBF09942A88398848885F846E84AA
:103810007D848C849B84AA84B984C884DF80EE80F4
:10382000FD800C811B81AA81B981CE0FD11D0FB6FD
:10383000F894DEBF0FBECDBFED010895F894FFCF21
:103840000000C84100008040D0070000CC07800085
:10385000000001000200000001000200030004005B
:103860000500726F7373657269616C5F6D73677366
:103870002F52657175657374506172616D003031DE
:103880003640414650515600000000BA10B605B30C
:1038900005B00500000000F306AD06AA06A7060065
:1038A0000000008A105A05570554056061660170D2
:1038B000717602000000000C026C0199015902CAE5
:1038C00001A801BC01000000006A0FB904B604B3EE
:1038D000040000000007046709040401040000005C
:1038E000006604F009BB02B80200000000A70F85C3
:1038F0000A51054E0500000000C202080CB3020088
:10390000000000710ABE02BB02B8023661343065A5
:1039100030666661366131376135303361633366F5
:103920003836313639393162316636007374645F46
:103930006D7367732F466C6F617433324D756C74A1
:10394000694172726179004D6573736167652066C4
:10395000726F6D206465766963652064726F707044
:1039600065643A206D657373616765206C61726789
:103970006572207468616E206275666665722E00DD
:1039800030666564326131316331336531316335BD
:1039900035373162346532613939356139316133F6
:1039A000007374645F6D7367732F4D756C74694138
:1039B000727261794C61796F75740034636430633D
:1039C0003833613836383364656165343065636433
:1039D0006163363065353362666138007374645FE5
:1039E0006D7367732F4D756C7469417272617944A0
:1039F000696D656E73696F6E00396630653938625E
:103A00006461363539383139383664646635336146
:103A10006661376134306534390031316162643751
:103A200033316332353933333236316364363138CA
:103A30003362643132643632393500726F737365C4
:103A40007269616C5F6D7367732F4C6F67003061D3
:103A500064353166383866633434383932663863F1
:103A6000313036383430373736343630303500720E
:103A70006F7373657269616C5F6D7367732F546FD9
:103A8000706963496E666F00636437313636633739
:103A90003463353532633331316662636332666570
:103AA0003561376263323839007374645F6D7367F0
:103AB000732F54696D650073656E736F725F646117
:103AC00074610073696E655F776176655F706172BE
:043AD000616D7300B1
:00000001FF
